{
  "_format": "hh-sol-artifact-1",
  "contractName": "CrowdFunding",
  "sourceName": "contracts/CrowdFunding.sol",
  "abi": [
    {
      "inputs": [
        {
          "internalType": "uint256",
          "name": "",
          "type": "uint256"
        }
      ],
      "name": "campaigns",
      "outputs": [
        {
          "internalType": "address",
          "name": "owner",
          "type": "address"
        },
        {
          "internalType": "string",
          "name": "title",
          "type": "string"
        },
        {
          "internalType": "string",
          "name": "description",
          "type": "string"
        },
        {
          "internalType": "uint256",
          "name": "target",
          "type": "uint256"
        },
        {
          "internalType": "uint256",
          "name": "deadline",
          "type": "uint256"
        },
        {
          "internalType": "uint256",
          "name": "amountCollected",
          "type": "uint256"
        }
      ],
      "stateMutability": "view",
      "type": "function"
    },
    {
      "inputs": [
        {
          "internalType": "address",
          "name": "_owner",
          "type": "address"
        },
        {
          "internalType": "string",
          "name": "_title",
          "type": "string"
        },
        {
          "internalType": "string",
          "name": "_description",
          "type": "string"
        },
        {
          "internalType": "uint256",
          "name": "_target",
          "type": "uint256"
        },
        {
          "internalType": "uint256",
          "name": "_amountCollected",
          "type": "uint256"
        },
        {
          "internalType": "uint256",
          "name": "_deadline",
          "type": "uint256"
        }
      ],
      "name": "createCampaign",
      "outputs": [
        {
          "internalType": "uint256",
          "name": "",
          "type": "uint256"
        }
      ],
      "stateMutability": "nonpayable",
      "type": "function"
    },
    {
      "inputs": [
        {
          "internalType": "uint256",
          "name": "_id",
          "type": "uint256"
        }
      ],
      "name": "donateCampaign9",
      "outputs": [],
      "stateMutability": "payable",
      "type": "function"
    },
    {
      "inputs": [],
      "name": "getCampaigns",
      "outputs": [
        {
          "components": [
            {
              "internalType": "address",
              "name": "owner",
              "type": "address"
            },
            {
              "internalType": "string",
              "name": "title",
              "type": "string"
            },
            {
              "internalType": "string",
              "name": "description",
              "type": "string"
            },
            {
              "internalType": "uint256",
              "name": "target",
              "type": "uint256"
            },
            {
              "internalType": "uint256",
              "name": "deadline",
              "type": "uint256"
            },
            {
              "internalType": "uint256",
              "name": "amountCollected",
              "type": "uint256"
            },
            {
              "internalType": "address[]",
              "name": "donators",
              "type": "address[]"
            },
            {
              "internalType": "uint256[]",
              "name": "donations",
              "type": "uint256[]"
            }
          ],
          "internalType": "struct CrowdFunding.Campaign[]",
          "name": "",
          "type": "tuple[]"
        }
      ],
      "stateMutability": "view",
      "type": "function"
    },
    {
      "inputs": [
        {
          "internalType": "uint256",
          "name": "_id",
          "type": "uint256"
        }
      ],
      "name": "getDonators",
      "outputs": [
        {
          "internalType": "address[]",
          "name": "",
          "type": "address[]"
        },
        {
          "internalType": "uint256[]",
          "name": "",
          "type": "uint256[]"
        }
      ],
      "stateMutability": "view",
      "type": "function"
    },
    {
      "inputs": [],
      "name": "numberOfCampaigns",
      "outputs": [
        {
          "internalType": "uint256",
          "name": "",
          "type": "uint256"
        }
      ],
      "stateMutability": "view",
      "type": "function"
    }
  ],
  "bytecode": "0x6080604052600060015534801561001557600080fd5b506117a6806100256000396000f3fe6080604052600436106100555760003560e01c806307ca140d1461005a5780630fa91fa914610085578063141961bc146100c3578063a3012d5314610105578063a6b0363314610142578063f73424321461016d575b600080fd5b34801561006657600080fd5b5061006f610189565b60405161007c9190610a3a565b60405180910390f35b34801561009157600080fd5b506100ac60048036038101906100a79190610a95565b61018f565b6040516100ba929190610c70565b60405180910390f35b3480156100cf57600080fd5b506100ea60048036038101906100e59190610a95565b61029f565b6040516100fc96959493929190610d46565b60405180910390f35b34801561011157600080fd5b5061012c60048036038101906101279190610f16565b61040b565b6040516101399190610a3a565b60405180910390f35b34801561014e57600080fd5b5061015761051f565b604051610164919061128a565b60405180910390f35b61018760048036038101906101829190610a95565b610863565b005b60015481565b6060806000808481526020019081526020016000206006016000808581526020019081526020016000206007018180548060200260200160405190810160405280929190818152602001828054801561023d57602002820191906000526020600020905b8160009054906101000a900473ffffffffffffffffffffffffffffffffffffffff1673ffffffffffffffffffffffffffffffffffffffff16815260200190600101908083116101f3575b505050505091508080548060200260200160405190810160405280929190818152602001828054801561028f57602002820191906000526020600020905b81548152602001906001019080831161027b575b5050505050905091509150915091565b60006020528060005260406000206000915090508060000160009054906101000a900473ffffffffffffffffffffffffffffffffffffffff16908060010180546102e8906112db565b80601f0160208091040260200160405190810160405280929190818152602001828054610314906112db565b80156103615780601f1061033657610100808354040283529160200191610361565b820191906000526020600020905b81548152906001019060200180831161034457829003601f168201915b505050505090806002018054610376906112db565b80601f01602080910402602001604051908101604052809291908181526020018280546103a2906112db565b80156103ef5780601f106103c4576101008083540402835291602001916103ef565b820191906000526020600020905b8154815290600101906020018083116103d257829003601f168201915b5050505050908060030154908060040154908060050154905086565b600080600080600154815260200190815260200160002090504281600401541061046a576040517f08c379a00000000000000000000000000000000000000000000000000000000081526004016104619061137e565b60405180910390fd5b8681600101908161047b919061154a565b50878160000160006101000a81548173ffffffffffffffffffffffffffffffffffffffff021916908373ffffffffffffffffffffffffffffffffffffffff160217905550828160040181905550858160020190816104d9919061154a565b50848160030181905550838160050181905550600160008154809291906104ff9061164b565b9190505550600180546105129190611693565b9150509695505050505050565b6060600060015467ffffffffffffffff81111561053f5761053e610deb565b5b60405190808252806020026020018201604052801561057857816020015b6105656109c6565b81526020019060019003908161055d5790505b50905060005b60015481101561085b576000806000838152602001908152602001600020905080604051806101000160405290816000820160009054906101000a900473ffffffffffffffffffffffffffffffffffffffff1673ffffffffffffffffffffffffffffffffffffffff1673ffffffffffffffffffffffffffffffffffffffff168152602001600182018054610611906112db565b80601f016020809104026020016040519081016040528092919081815260200182805461063d906112db565b801561068a5780601f1061065f5761010080835404028352916020019161068a565b820191906000526020600020905b81548152906001019060200180831161066d57829003601f168201915b505050505081526020016002820180546106a3906112db565b80601f01602080910402602001604051908101604052809291908181526020018280546106cf906112db565b801561071c5780601f106106f15761010080835404028352916020019161071c565b820191906000526020600020905b8154815290600101906020018083116106ff57829003601f168201915b50505050508152602001600382015481526020016004820154815260200160058201548152602001600682018054806020026020016040519081016040528092919081815260200182805480156107c857602002820191906000526020600020905b8160009054906101000a900473ffffffffffffffffffffffffffffffffffffffff1673ffffffffffffffffffffffffffffffffffffffff168152602001906001019080831161077e575b505050505081526020016007820180548060200260200160405190810160405280929190818152602001828054801561082057602002820191906000526020600020905b81548152602001906001019080831161080c575b50505050508152505083838151811061083c5761083b6116c7565b5b60200260200101819052505080806108539061164b565b91505061057e565b508091505090565b60003490506000806000848152602001908152602001600020905080600601339080600181540180825580915050600190039060005260206000200160009091909190916101000a81548173ffffffffffffffffffffffffffffffffffffffff021916908373ffffffffffffffffffffffffffffffffffffffff1602179055508060070182908060018154018082558091505060019003906000526020600020016000909190919091505560008160000160009054906101000a900473ffffffffffffffffffffffffffffffffffffffff1673ffffffffffffffffffffffffffffffffffffffff168360405161095890611727565b60006040518083038185875af1925050503d8060008114610995576040519150601f19603f3d011682016040523d82523d6000602084013e61099a565b606091505b5050905080156109c057828260050160008282546109b8919061173c565b925050819055505b50505050565b604051806101000160405280600073ffffffffffffffffffffffffffffffffffffffff168152602001606081526020016060815260200160008152602001600081526020016000815260200160608152602001606081525090565b6000819050919050565b610a3481610a21565b82525050565b6000602082019050610a4f6000830184610a2b565b92915050565b6000604051905090565b600080fd5b600080fd5b610a7281610a21565b8114610a7d57600080fd5b50565b600081359050610a8f81610a69565b92915050565b600060208284031215610aab57610aaa610a5f565b5b6000610ab984828501610a80565b91505092915050565b600081519050919050565b600082825260208201905092915050565b6000819050602082019050919050565b600073ffffffffffffffffffffffffffffffffffffffff82169050919050565b6000610b1982610aee565b9050919050565b610b2981610b0e565b82525050565b6000610b3b8383610b20565b60208301905092915050565b6000602082019050919050565b6000610b5f82610ac2565b610b698185610acd565b9350610b7483610ade565b8060005b83811015610ba5578151610b8c8882610b2f565b9750610b9783610b47565b925050600181019050610b78565b5085935050505092915050565b600081519050919050565b600082825260208201905092915050565b6000819050602082019050919050565b610be781610a21565b82525050565b6000610bf98383610bde565b60208301905092915050565b6000602082019050919050565b6000610c1d82610bb2565b610c278185610bbd565b9350610c3283610bce565b8060005b83811015610c63578151610c4a8882610bed565b9750610c5583610c05565b925050600181019050610c36565b5085935050505092915050565b60006040820190508181036000830152610c8a8185610b54565b90508181036020830152610c9e8184610c12565b90509392505050565b610cb081610b0e565b82525050565b600081519050919050565b600082825260208201905092915050565b60005b83811015610cf0578082015181840152602081019050610cd5565b60008484015250505050565b6000601f19601f8301169050919050565b6000610d1882610cb6565b610d228185610cc1565b9350610d32818560208601610cd2565b610d3b81610cfc565b840191505092915050565b600060c082019050610d5b6000830189610ca7565b8181036020830152610d6d8188610d0d565b90508181036040830152610d818187610d0d565b9050610d906060830186610a2b565b610d9d6080830185610a2b565b610daa60a0830184610a2b565b979650505050505050565b610dbe81610b0e565b8114610dc957600080fd5b50565b600081359050610ddb81610db5565b92915050565b600080fd5b600080fd5b7f4e487b7100000000000000000000000000000000000000000000000000000000600052604160045260246000fd5b610e2382610cfc565b810181811067ffffffffffffffff82111715610e4257610e41610deb565b5b80604052505050565b6000610e55610a55565b9050610e618282610e1a565b919050565b600067ffffffffffffffff821115610e8157610e80610deb565b5b610e8a82610cfc565b9050602081019050919050565b82818337600083830152505050565b6000610eb9610eb484610e66565b610e4b565b905082815260208101848484011115610ed557610ed4610de6565b5b610ee0848285610e97565b509392505050565b600082601f830112610efd57610efc610de1565b5b8135610f0d848260208601610ea6565b91505092915050565b60008060008060008060c08789031215610f3357610f32610a5f565b5b6000610f4189828a01610dcc565b965050602087013567ffffffffffffffff811115610f6257610f61610a64565b5b610f6e89828a01610ee8565b955050604087013567ffffffffffffffff811115610f8f57610f8e610a64565b5b610f9b89828a01610ee8565b9450506060610fac89828a01610a80565b9350506080610fbd89828a01610a80565b92505060a0610fce89828a01610a80565b9150509295509295509295565b600081519050919050565b600082825260208201905092915050565b6000819050602082019050919050565b600082825260208201905092915050565b600061102382610cb6565b61102d8185611007565b935061103d818560208601610cd2565b61104681610cfc565b840191505092915050565b600082825260208201905092915050565b600061106d82610ac2565b6110778185611051565b935061108283610ade565b8060005b838110156110b357815161109a8882610b2f565b97506110a583610b47565b925050600181019050611086565b5085935050505092915050565b600082825260208201905092915050565b60006110dc82610bb2565b6110e681856110c0565b93506110f183610bce565b8060005b838110156111225781516111098882610bed565b975061111483610c05565b9250506001810190506110f5565b5085935050505092915050565b6000610100830160008301516111486000860182610b20565b50602083015184820360208601526111608282611018565b9150506040830151848203604086015261117a8282611018565b915050606083015161118f6060860182610bde565b5060808301516111a26080860182610bde565b5060a08301516111b560a0860182610bde565b5060c083015184820360c08601526111cd8282611062565b91505060e083015184820360e08601526111e782826110d1565b9150508091505092915050565b6000611200838361112f565b905092915050565b6000602082019050919050565b600061122082610fdb565b61122a8185610fe6565b93508360208202850161123c85610ff7565b8060005b85811015611278578484038952815161125985826111f4565b945061126483611208565b925060208a01995050600181019050611240565b50829750879550505050505092915050565b600060208201905081810360008301526112a48184611215565b905092915050565b7f4e487b7100000000000000000000000000000000000000000000000000000000600052602260045260246000fd5b600060028204905060018216806112f357607f821691505b602082108103611306576113056112ac565b5b50919050565b7f54686520646561646c696e65206d757374206265206461746520696e2074686560008201527f2066757472650000000000000000000000000000000000000000000000000000602082015250565b6000611368602683610cc1565b91506113738261130c565b604082019050919050565b600060208201905081810360008301526113978161135b565b9050919050565b60008190508160005260206000209050919050565b60006020601f8301049050919050565b600082821b905092915050565b6000600883026114007fffffffffffffffffffffffffffffffffffffffffffffffffffffffffffffffff826113c3565b61140a86836113c3565b95508019841693508086168417925050509392505050565b6000819050919050565b600061144761144261143d84610a21565b611422565b610a21565b9050919050565b6000819050919050565b6114618361142c565b61147561146d8261144e565b8484546113d0565b825550505050565b600090565b61148a61147d565b611495818484611458565b505050565b5b818110156114b9576114ae600082611482565b60018101905061149b565b5050565b601f8211156114fe576114cf8161139e565b6114d8846113b3565b810160208510156114e7578190505b6114fb6114f3856113b3565b83018261149a565b50505b505050565b600082821c905092915050565b600061152160001984600802611503565b1980831691505092915050565b600061153a8383611510565b9150826002028217905092915050565b61155382610cb6565b67ffffffffffffffff81111561156c5761156b610deb565b5b61157682546112db565b6115818282856114bd565b600060209050601f8311600181146115b457600084156115a2578287015190505b6115ac858261152e565b865550611614565b601f1984166115c28661139e565b60005b828110156115ea578489015182556001820191506020850194506020810190506115c5565b868310156116075784890151611603601f891682611510565b8355505b6001600288020188555050505b505050505050565b7f4e487b7100000000000000000000000000000000000000000000000000000000600052601160045260246000fd5b600061165682610a21565b91507fffffffffffffffffffffffffffffffffffffffffffffffffffffffffffffffff82036116885761168761161c565b5b600182019050919050565b600061169e82610a21565b91506116a983610a21565b92508282039050818111156116c1576116c061161c565b5b92915050565b7f4e487b7100000000000000000000000000000000000000000000000000000000600052603260045260246000fd5b600081905092915050565b50565b60006117116000836116f6565b915061171c82611701565b600082019050919050565b600061173282611704565b9150819050919050565b600061174782610a21565b915061175283610a21565b925082820190508082111561176a5761176961161c565b5b9291505056fea2646970667358221220d8fc34aebcc7df8e8081913b2ff45bbddc1f6c169908d96b38cea7b8adc3594764736f6c63430008130033",
  "linkReferences": {},
  "deployedLinkReferences": {}
}